{
  "_format": "hh-sol-artifact-1",
  "contractName": "DevHireBooking",
  "sourceName": "contracts/DevHireBooking.sol",
  "abi": [
    {
      "inputs": [],
      "stateMutability": "nonpayable",
      "type": "constructor"
    },
    {
      "anonymous": false,
      "inputs": [
        {
          "indexed": false,
          "internalType": "bytes32",
          "name": "bookingId",
          "type": "bytes32"
        }
      ],
      "name": "BookingCompleted",
      "type": "event"
    },
    {
      "anonymous": false,
      "inputs": [
        {
          "indexed": false,
          "internalType": "bytes32",
          "name": "bookingId",
          "type": "bytes32"
        },
        {
          "indexed": false,
          "internalType": "address",
          "name": "client",
          "type": "address"
        },
        {
          "indexed": false,
          "internalType": "address",
          "name": "developer",
          "type": "address"
        },
        {
          "indexed": false,
          "internalType": "uint256",
          "name": "amount",
          "type": "uint256"
        }
      ],
      "name": "BookingCreated",
      "type": "event"
    },
    {
      "anonymous": false,
      "inputs": [
        {
          "indexed": false,
          "internalType": "bytes32",
          "name": "bookingId",
          "type": "bytes32"
        }
      ],
      "name": "BookingRefunded",
      "type": "event"
    },
    {
      "inputs": [
        {
          "internalType": "bytes32",
          "name": "",
          "type": "bytes32"
        }
      ],
      "name": "bookings",
      "outputs": [
        {
          "internalType": "address",
          "name": "client",
          "type": "address"
        },
        {
          "internalType": "address",
          "name": "developer",
          "type": "address"
        },
        {
          "internalType": "uint256",
          "name": "amount",
          "type": "uint256"
        },
        {
          "internalType": "bool",
          "name": "isPaid",
          "type": "bool"
        },
        {
          "internalType": "bool",
          "name": "isCompleted",
          "type": "bool"
        },
        {
          "internalType": "bool",
          "name": "isRefunded",
          "type": "bool"
        }
      ],
      "stateMutability": "view",
      "type": "function"
    },
    {
      "inputs": [
        {
          "internalType": "bytes32",
          "name": "bookingId",
          "type": "bytes32"
        }
      ],
      "name": "completeBooking",
      "outputs": [],
      "stateMutability": "nonpayable",
      "type": "function"
    },
    {
      "inputs": [
        {
          "internalType": "bytes32",
          "name": "bookingId",
          "type": "bytes32"
        },
        {
          "internalType": "address",
          "name": "developer",
          "type": "address"
        }
      ],
      "name": "createBooking",
      "outputs": [],
      "stateMutability": "payable",
      "type": "function"
    },
    {
      "inputs": [],
      "name": "owner",
      "outputs": [
        {
          "internalType": "address",
          "name": "",
          "type": "address"
        }
      ],
      "stateMutability": "view",
      "type": "function"
    },
    {
      "inputs": [
        {
          "internalType": "bytes32",
          "name": "bookingId",
          "type": "bytes32"
        }
      ],
      "name": "refundBooking",
      "outputs": [],
      "stateMutability": "nonpayable",
      "type": "function"
    }
  ],
  "bytecode": "0x6080604052348015600f57600080fd5b50336000806101000a81548173ffffffffffffffffffffffffffffffffffffffff021916908373ffffffffffffffffffffffffffffffffffffffff160217905550610dfd8061005f6000396000f3fe60806040526004361061004a5760003560e01c806323b426591461004f57806358445207146100785780638da5cb5b146100a1578063ac88702d146100cc578063bbacc187146100e8575b600080fd5b34801561005b57600080fd5b5061007660048036038101906100719190610935565b61012a565b005b34801561008457600080fd5b5061009f600480360381019061009a9190610935565b610339565b005b3480156100ad57600080fd5b506100b661059a565b6040516100c391906109a3565b60405180910390f35b6100e660048036038101906100e191906109ea565b6105be565b005b3480156100f457600080fd5b5061010f600480360381019061010a9190610935565b610857565b60405161012196959493929190610a5e565b60405180910390f35b600060016000838152602001908152602001600020905060008054906101000a900473ffffffffffffffffffffffffffffffffffffffff1673ffffffffffffffffffffffffffffffffffffffff163373ffffffffffffffffffffffffffffffffffffffff16146101cf576040517f08c379a00000000000000000000000000000000000000000000000000000000081526004016101c690610b1c565b60405180910390fd5b8060030160009054906101000a900460ff16610220576040517f08c379a000000000000000000000000000000000000000000000000000000000815260040161021790610b88565b60405180910390fd5b8060030160019054906101000a900460ff1615610272576040517f08c379a000000000000000000000000000000000000000000000000000000000815260040161026990610bf4565b60405180910390fd5b60018160030160016101000a81548160ff0219169083151502179055508060010160009054906101000a900473ffffffffffffffffffffffffffffffffffffffff1673ffffffffffffffffffffffffffffffffffffffff166108fc82600201549081150290604051600060405180830381858888f193505050501580156102fd573d6000803e3d6000fd5b507fd21701d97bb83d5045005a40209e7846a9392de5fd321f2a3092732a0b4cc03f8260405161032d9190610c23565b60405180910390a15050565b600060016000838152602001908152602001600020905060008054906101000a900473ffffffffffffffffffffffffffffffffffffffff1673ffffffffffffffffffffffffffffffffffffffff163373ffffffffffffffffffffffffffffffffffffffff16146103de576040517f08c379a00000000000000000000000000000000000000000000000000000000081526004016103d590610b1c565b60405180910390fd5b8060030160009054906101000a900460ff1661042f576040517f08c379a000000000000000000000000000000000000000000000000000000000815260040161042690610b88565b60405180910390fd5b8060030160019054906101000a900460ff1615610481576040517f08c379a000000000000000000000000000000000000000000000000000000000815260040161047890610bf4565b60405180910390fd5b8060030160029054906101000a900460ff16156104d3576040517f08c379a00000000000000000000000000000000000000000000000000000000081526004016104ca90610c8a565b60405180910390fd5b60018160030160026101000a81548160ff0219169083151502179055508060000160009054906101000a900473ffffffffffffffffffffffffffffffffffffffff1673ffffffffffffffffffffffffffffffffffffffff166108fc82600201549081150290604051600060405180830381858888f1935050505015801561055e573d6000803e3d6000fd5b507fc56d99ac782bb0997642da2e4765a32b9e43b5db00178c5316b0248e502b166b8260405161058e9190610c23565b60405180910390a15050565b60008054906101000a900473ffffffffffffffffffffffffffffffffffffffff1681565b60003411610601576040517f08c379a00000000000000000000000000000000000000000000000000000000081526004016105f890610cf6565b60405180910390fd5b600073ffffffffffffffffffffffffffffffffffffffff166001600084815260200190815260200160002060000160009054906101000a900473ffffffffffffffffffffffffffffffffffffffff1673ffffffffffffffffffffffffffffffffffffffff16146106a6576040517f08c379a000000000000000000000000000000000000000000000000000000000815260040161069d90610d62565b60405180910390fd5b6040518060c001604052803373ffffffffffffffffffffffffffffffffffffffff1681526020018273ffffffffffffffffffffffffffffffffffffffff168152602001348152602001600115158152602001600015158152602001600015158152506001600084815260200190815260200160002060008201518160000160006101000a81548173ffffffffffffffffffffffffffffffffffffffff021916908373ffffffffffffffffffffffffffffffffffffffff16021790555060208201518160010160006101000a81548173ffffffffffffffffffffffffffffffffffffffff021916908373ffffffffffffffffffffffffffffffffffffffff1602179055506040820151816002015560608201518160030160006101000a81548160ff02191690831515021790555060808201518160030160016101000a81548160ff02191690831515021790555060a08201518160030160026101000a81548160ff0219169083151502179055509050507f5e16390906300187ceae32dca701e36db09ce4078d0dcf5df2f8a3851303242f8233833460405161084b9493929190610d82565b60405180910390a15050565b60016020528060005260406000206000915090508060000160009054906101000a900473ffffffffffffffffffffffffffffffffffffffff16908060010160009054906101000a900473ffffffffffffffffffffffffffffffffffffffff16908060020154908060030160009054906101000a900460ff16908060030160019054906101000a900460ff16908060030160029054906101000a900460ff16905086565b600080fd5b6000819050919050565b610912816108ff565b811461091d57600080fd5b50565b60008135905061092f81610909565b92915050565b60006020828403121561094b5761094a6108fa565b5b600061095984828501610920565b91505092915050565b600073ffffffffffffffffffffffffffffffffffffffff82169050919050565b600061098d82610962565b9050919050565b61099d81610982565b82525050565b60006020820190506109b86000830184610994565b92915050565b6109c781610982565b81146109d257600080fd5b50565b6000813590506109e4816109be565b92915050565b60008060408385031215610a0157610a006108fa565b5b6000610a0f85828601610920565b9250506020610a20858286016109d5565b9150509250929050565b6000819050919050565b610a3d81610a2a565b82525050565b60008115159050919050565b610a5881610a43565b82525050565b600060c082019050610a736000830189610994565b610a806020830188610994565b610a8d6040830187610a34565b610a9a6060830186610a4f565b610aa76080830185610a4f565b610ab460a0830184610a4f565b979650505050505050565b600082825260208201905092915050565b7f4f6e6c79206f776e657200000000000000000000000000000000000000000000600082015250565b6000610b06600a83610abf565b9150610b1182610ad0565b602082019050919050565b60006020820190508181036000830152610b3581610af9565b9050919050565b7f4e6f742070616964000000000000000000000000000000000000000000000000600082015250565b6000610b72600883610abf565b9150610b7d82610b3c565b602082019050919050565b60006020820190508181036000830152610ba181610b65565b9050919050565b7f416c726561647920636f6d706c65746564000000000000000000000000000000600082015250565b6000610bde601183610abf565b9150610be982610ba8565b602082019050919050565b60006020820190508181036000830152610c0d81610bd1565b9050919050565b610c1d816108ff565b82525050565b6000602082019050610c386000830184610c14565b92915050565b7f416c726561647920726566756e64656400000000000000000000000000000000600082015250565b6000610c74601083610abf565b9150610c7f82610c3e565b602082019050919050565b60006020820190508181036000830152610ca381610c67565b9050919050565b7f5061796d656e7420726571756972656400000000000000000000000000000000600082015250565b6000610ce0601083610abf565b9150610ceb82610caa565b602082019050919050565b60006020820190508181036000830152610d0f81610cd3565b9050919050565b7f426f6f6b696e6720657869737473000000000000000000000000000000000000600082015250565b6000610d4c600e83610abf565b9150610d5782610d16565b602082019050919050565b60006020820190508181036000830152610d7b81610d3f565b9050919050565b6000608082019050610d976000830187610c14565b610da46020830186610994565b610db16040830185610994565b610dbe6060830184610a34565b9594505050505056fea2646970667358221220432290e8412cceb2cee1558eb356efc5ee1724d03680324648b16cdda34c4da464736f6c634300081c0033",
  "linkReferences": {},
  "deployedLinkReferences": {}
}